:100000000C9434000C9449000C9449000C94490061
:100010000C9449000C9449000C9449000C9449003C
:100020000C9449000C9449000C9449000C9449002C
:100030000C9449000C9449000C9449000C9449001C
:100040000C9449000C9449000C9449000C9449000C
:100050000C9449000C9449000C9449000C944900FC
:100060000C9449000C94490011241FBECFEFD8E036
:10007000DEBFCDBF11E0A0E0B1E0E6E8F2E002C0F3
:1000800005900D92A830B107D9F70E9405010C9494
:1000900041010C94000080E090E041E050E064B148
:1000A0009A01082E01C0220F0A94EAF7622B64B964
:1000B00001968630910599F714BC15BC16BC85B520
:1000C000856085BD0895CF92DF92EF920F931F93C5
:1000D000FC01D80110821C9281E0582F01C0550FFD
:1000E0006A95EAF701C0880FEA94EAF7482F80E0A2
:1000F00090E0D12C1C929601082E02C035952795D0
:100100000A94E2F720FF02C0508301C010824C9392
:10011000108201968830910569F71C921F910F910A
:10012000EF90DF90CF900895CF92EF920F931F93AF
:1001300015B8C12C85E0E82E05E210E024E045E288
:1001400050E063E085E290E00E94630080E185B9C1
:1001500015B892E0E92E21E045E250E060E085E24A
:1001600090E00E94630082E085B91F910F91EF90AB
:10017000CF900895CF92EF920F931F93CF93C62FF6
:1001800015B815B8C82E25E0E22E05E210E024E0EF
:1001900045E250E063E085E290E00E946300CC2EEF
:1001A00032E0E32E21E045E250E060E085E290E0BD
:1001B0000E94630080E185B982E085B9CF911F91EB
:1001C0000F91EF90CF900895EF92FF920F931F93AE
:1001D000CF93DF938C01C7E0D0E0EE24E394F12CC1
:1001E000B7010C2E01C0660F0A94EAF76095F8017A
:1001F00081918F010E94BA00219790F7DF91CF91F2
:100200001F910F91FF90EF900895CF93DF93CDB79B
:10021000DEB728970FB6F894DEBF0FBECDBF0E94A1
:100220004B0088E0E0E0F1E0DE01119601900D92D4
:100230008A95E1F757E0C52ED12C01E010E07E0150
:1002400089E0E80EF11C86B58C37B0F0D39416BC6B
:1002500089E1D81211C0C8010C2C01C0880F0A9482
:10026000EAF78095FE013196908198239193EE15DF
:10027000FF05D1F7CA94D12CCE0101960E94E4006B
:06028000E2CFF894FFCF6D
:08028600FF8080FFFF8080FF74
:00000001FF
